:100000000C9458000C9480000C9480000C94800098
:100010000C9480000C9480000C9480000C94800060
:100020000C9480000C9480000C9480000C94800050
:100030000C9480000C9480000C9480000C94800040
:100040000C9472070C9480000C94E2070C94BC078B
:100050000C9480000C9480000C9480000C94800020
:100060000C9414080C948000000000002500280067
:100070002B00040404040404040402020202020229
:10008000030303030303010204081020408001025C
:1000900004081020010204081020000000080002DB
:1000A0000100000304070000000000000000330905
:1000B00011241FBECFEFD8E0DEBFCDBF11E0A0E01E
:1000C000B1E0E6ECFBE102C005900D92A23EB10763
:1000D000D9F723E0A2EEB1E001C01D92AA35B20724
:1000E000E1F710E0C8E5D0E004C02197FE010E94CE
:1000F000DB0DC735D107C9F70E947F090C94E10DCC
:100100000C94000090E0FC01E656FF4F2491FC01A6
:10011000EA57FF4F3491FC01EE58FF4FE491EE2374
:10012000C9F0222339F0233001F1A8F4213019F16C
:10013000223029F1F0E0EE0FFF1FE859FF4FA591A3
:10014000B4918FB7F894EC91611126C030953E239D
:100150003C938FBF08952730A9F02830C9F0243090
:1001600049F7809180008F7D03C0809180008F7758
:1001700080938000DFCF84B58F7784BDDBCF84B5DB
:100180008F7DFBCF8091B0008F778093B000D2CF6E
:100190008091B0008F7DF9CF3E2BDACF3FB7F89436
:1001A0008091510290915202A0915302B091540259
:1001B00026B5A89B05C02F3F19F00196A11DB11DC2
:1001C0003FBFBA2FA92F982F8827BC01CD01620FFE
:1001D000711D811D911D42E0660F771F881F991FB9
:1001E0004A95D1F708958F929F92AF92BF92CF9286
:1001F000DF92EF92FF924B015C010E94CE006B01F7
:100200007C010E94CE006C197D098E099F09683E11
:10021000734081059105A8F321E0821A9108A10895
:10022000B10888EEC80E83E0D81EE11CF11C8114D1
:100230009104A104B10429F7FF90EF90DF90CF90D3
:10024000BF90AF909F908F900895AF92BF92CF9242
:10025000DF92EF92FF920F931F93CF93DF936C0186
:100260007B018B01040F151FEB015E01AE18BF0867
:10027000C017D10759F06991D601ED91FC91019019
:10028000F081E02DC6010995892B79F7C501DF9131
:10029000CF911F910F91FF90EF90DF90CF90BF9083
:1002A000AF900895FC01538D448D252F30E0842FAD
:1002B00090E0821B930B541710F0CF96089501978E
:1002C0000895FC01918D828D981761F0A28DAE0F7B
:1002D000BF2FB11D5D968C91928D9F5F9F73928F02
:1002E00090E008958FEF9FEF0895FC01918D828D2E
:1002F000981731F0828DE80FF11D858D90E00895FB
:100300008FEF9FEF0895FC01918D228D892F90E052
:10031000805C9F4F821B91098F739927089585EA0E
:1003200092E00E94830121E0892B09F420E0822FD2
:10033000089580E090E0892B29F00E948F018111BF
:100340000C9400000895FC01A48DA80FB92FB11DD5
:10035000A35ABF4F2C91848D90E001968F739927FB
:10036000848FA689B7892C93A089B1898C918370D9
:1003700080648C93938D848D981306C00288F389D2
:10038000E02D80818F7D80830895EF92FF920F93FF
:100390001F93CF93DF93EC0181E0888F9B8D8C8D31
:1003A00098131AC0E889F989808185FF15C09FB725
:1003B000F894EE89FF896083E889F98980818370E8
:1003C000806480839FBF81E090E0DF91CF911F9197
:1003D0000F91FF90EF900895F62E0B8D10E00F5FB8
:1003E0001F4F0F731127E02E8C8D8E110CC00FB68E
:1003F00007FCFACFE889F989808185FFF5CFCE0126
:100400000E94A301F1CFEB8DEC0FFD2FF11DE35AFC
:10041000FF4FF0829FB7F8940B8FEA89FB898081A8
:100420008062CFCFCF93DF93EC01888D8823B9F022
:10043000AA89BB89E889F9898C9185FD03C08081EF
:1004400086FD0DC00FB607FCF7CF8C9185FFF2CF6C
:10045000808185FFEDCFCE010E94A301E9CFDF911E
:10046000CF91089520912702260F3327331F213281
:100470003105ECF420917B02FC0190E080E0243017
:1004800069F082E00895A09127022191AC014B5FB1
:100490005D4FA40FB52FB11D2C930196861798F3CD
:1004A00080912702680F6093270280E0089581E021
:1004B000089510927B0281E080937A021092550297
:1004C00061E082E10E94820061E083E10E9482009B
:1004D000E9EBF0E080818E7F808380818D7F808357
:1004E00088E48093B80085E48093BC000895CF939E
:1004F000DF9391E0909304028823B9F0C091B80093
:10050000D091BA008091BC008A7B8093BC0060E0EF
:1005100082E10E94820060E083E10E9482000E94EA
:100520005902D093BA00C093B800DF91CF910895DB
:100530008F929F92AF92BF92CF92DF92EF92FF92F3
:100540000F931F93CF93DF93D091A402D13208F081
:10055000D7C0182FC091A3020E94CE006B017C016E
:1005600080917B0281116BC082E080937B021093AB
:100570007A028FEF8093790210927802D0937702FB
:10058000A3E8B2E0E7E5F2E080E0D81391C0109272
:10059000560280915602CC0FC82BC0935602809110
:1005A0005502813009F088C0109255020E94CE0099
:1005B0006B017C01809156028093BB0080917D028B
:1005C00090917E02A0917F02B0918002892B8A2BAC
:1005D0008B2BA1F00E94CE0000917D0210917E0233
:1005E00020917F02309180026C197D098E099F094C
:1005F000061717072807390708F442C08091BC0086
:1006000083FDD8CF85EC8093BC000E94CE006B01A7
:100610007C0180917B02823009F450C08091790284
:100620008F3F09F46FC080917902803209F46CC069
:1006300080917902803309F469C084E026C08091FA
:100640007D0290917E02A0917F02B0918002892B61
:100650008A2B8B2B09F484CF0E94CE0080907D02E0
:1006600090907E02A0907F02B09080026C197D096C
:100670008E099F0986169706A806B90608F070CF5E
:1006800080917C020E94770285E010928202109293
:10069000A40210928102DF91CF911F910F91FF90E0
:1006A000EF90DF90CF90BF90AF909F908F90089584
:1006B0009D9191938F5F69CF85EEA5CF80917D024B
:1006C00090917E02A0917F02B0918002892B8A2BAB
:1006D0008B2B09F49ECF0E94CE0000917D021091D9
:1006E0007E0220917F02309180026C197D098E0973
:1006F0009F09061717072807390708F08ACFC0CFC8
:1007000081E0C3CF80E0C1CF82E0BFCF83E0BDCF27
:10071000089508950895E091030280910202E81778
:1007200030F4F0E0EE51FE4F808190E008958FEFBD
:100730009FEF089590910302809102022FEF3FEF07
:10074000981748F4E92FF0E0EE51FE4F208130E099
:100750009F5F90930302C9010895809102029091D6
:100760000302891B990B0895CF92DF92EF92FF92BB
:100770000F931F93CF93DF937C01CB018A012091CC
:100780008102222389F0EB016B01C40ED51ECC152A
:10079000DD0569F06991D701ED91FC910190F0813F
:1007A000E02DC7010995F3CF642F0E943202C801E2
:1007B000DF91CF911F910F91FF90EF90DF90CF903D
:1007C0000895CF93DF931F92CDB7DEB76983209151
:1007D00081022223F9F02091A402203258F021E076
:1007E00030E0FC013383228390E080E00F90DF91C2
:1007F000CF91089580918202E82FF0E0ED57FD4FF0
:10080000998190838F5F809382028093A40281E01C
:1008100090E0ECCF61E0CE0101960E943202F7CF6A
:1008200090E080E00895DF92EF92FF920F931F9384
:10083000CF93DF938C01C62FD42EF52EE22E82E0CB
:1008400090E0D80113969C938E9312971092030216
:1008500010920202109282021092A4020E94590287
:1008600088E893E0909326028093250289E893E03C
:1008700090932A0280932902F8018185928523852D
:1008800031E0309381022093A302DC01ED91FC91D1
:100890000190F081E02D6C2F0995CD2DDF2DEC0E10
:1008A000FD2EF11CCE15DF0561F0F80181859285E2
:1008B0006991DC01ED91FC910190F081E02D0995A9
:1008C000F1CF81E00E949802811103C0F8011382E8
:1008D0001282DF91CF911F910F91FF90EF90DF90E7
:1008E0000895CF93DF931F92CDB7DEB789839091A0
:1008F0005203981791F021E0AE014F5F5F4F67E020
:100900008EE493E00E941304809150039091510370
:10091000892B19F48981809352030F90DF91CF9135
:100920000895FC0101900020E9F73197AF01481BC1
:10093000590BBC0185EA92E00C9425018F929F929D
:10094000AF92BF920F931F93CF93DF93CDB7DEB7D4
:10095000A1970FB6F894DEBF0FBECDBF19A24230EB
:1009600008F44AE08E010F5D1F4F842E912CB12CAC
:10097000A12CA50194010E94B90DE62FB901CA016D
:10098000EA30F4F4E05DD801EE938D01232B242BA3
:10099000252B79F790E080E0109719F0CD010E94A7
:1009A0009104A1960FB6F894DEBF0FBECDBFDF91C4
:1009B000CF911F910F91BF90AF909F908F9008950E
:1009C000E95CE1CFCF93DF930E949104EC018CE2CC
:1009D00091E00E9491048C0F9D1FDF91CF910895AB
:1009E0004F925F926F927F928F929F92AF92BF923F
:1009F000CF92DF92EF92FF920F931F93CF936B01F1
:100A00007C01742EAC019B010E94B40D882399F0E7
:100A10008FE291E0CF911F910F91FF90EF90DF90C7
:100A2000CF90BF90AF909F908F907F906F905F908E
:100A30004F900C94910446015701E894B7F82FEFBA
:100A40003FEF4FE75FE7C501B4010E94B40D81118C
:100A50000DC02FEF3FEF4FE75FE7C501B4010E94E4
:100A6000EA0B18161CF483E391E0D4CF2FEF3FEF8D
:100A70004FE75FE4C701B6010E94420D18161CF44F
:100A800087E391E0C7CF2FEF3FEF4FE75FECC70160
:100A9000B6010E94EA0B87FDF3CF20E030E0A90108
:100AA000C701B6010E94EA0B10E000E087FF0AC010
:100AB0006DE285EA92E00E94C5018C01F7FAF0949C
:100AC000F7F8F094C0E060E070E080E09FE37C160F
:100AD00041F020E030E040E251E40E94EF0BCF5FB4
:100AE000F6CFA70196010E947E0B2B013C010E94CC
:100AF000610C4B015C014AE00E949E047C01E00E07
:100B0000F11ECC23C1F1C501B4010E94900C9B01E0
:100B1000AC01C301B2010E947D0B4B015C016EE28E
:100B200085EA92E00E94C501E80EF91EC15018F155
:100B300020E030E040E251E4C501B4010E94470DDD
:100B40002B013C010E94610C4B01B12CA12C4AE00D
:100B5000C501B4010E949E04E80EF91EC501B4014E
:100B60000E94900C9B01AC01C301B2010E947D0B5D
:100B70004B015C01DBCFC701CF911F910F91FF901B
:100B8000EF90DF90CF90BF90AF909F908F907F902D
:100B90006F905F904F9008954F925F926F927F9207
:100BA0008F929F92AF92BF92CF92DF92EF92FF927D
:100BB0000F931F93CF93DF93EC01162F6A01E22E60
:100BC00082E090E09B838A831092030210920202DB
:100BD000109282021092A4020E94590288E893E0C7
:100BE000909326028093250289E893E090932A024D
:100BF0008093290289859A852B8531E03093810283
:100C00002093A302DC01ED91FC910190F081E02D95
:100C1000612F099581E00E949802182F8111D5C09B
:100C2000FB840E94CE004B015C0180917B0281110C
:100C300069C00E2DB0E2BE1508F400E281E0809399
:100C40007B0280937A029FEF909379021092780250
:100C5000900F909377028093560280915602FF0C7A
:100C6000F82AF092560280915502813009F087C02F
:100C7000109255020E94CE004B015C0180915602F9
:100C80008093BB0080917D0290917E02A0917F02B3
:100C9000B0918002892B8A2B8B2BA1F00E94CE0071
:100CA00040907D0250907E0260907F0270908002A2
:100CB000681979098A099B09461657066806790654
:100CC00008F441C08091BC0083FDD8CF85EC8093AF
:100CD000BC000E94CE004B015C0180917B02813000
:100CE00009F44FC080917802801710F400917802C7
:100CF000E7E5F2E0A2EEB1E0101749F181918D93A2
:100D00001F5FFACF80917D0290917E02A0917F02B9
:100D1000B0918002892B8A2B8B2B09F486CF0E94FD
:100D2000CE0040907D0250907E0260907F027090D5
:100D30008002681979098A099B09461657066806D0
:100D4000790608F072CF80917C020E94770210929F
:100D50000302109302028601EC0CFD2CF11C0E150F
:100D60001F0589F189859A85DC01ED91FC9102844A
:100D7000F385E02D0995F80181938F01F0CF85EE81
:100D8000A6CF80917D0290917E02A0917F02B091CA
:100D90008002892B8A2B8B2B09F49FCF0E94CE00D7
:100DA00040907D0250907E0260907F0270908002A1
:100DB000681979098A099B09461657066806790653
:100DC00008F08BCFC0CF1B821A82DF91CF911F9189
:100DD0000F91FF90EF90DF90CF90BF90AF909F90DA
:100DE0008F907F906F905F904F900895FF920F9338
:100DF0001F93CF93DF931F92CDB7DEB7082F162F27
:100E0000F42E21E0AE014F5F5F4F682F8EE493E038
:100E10000E94CC05412F4095198141234F294983D8
:100E200021E0AE014F5F5F4F602F8EE493E00E94A0
:100E300013040F90DF91CF911F910F91FF900895B0
:100E4000CF93C82FCF7080E00E9471044C2F6FE0C9
:100E50008DE30E94F60662E370E080E090E0CF91BF
:100E60000C94F30080E00E94710440E260E28FE3A2
:100E70000C94F60685ED8093BC0080917D029091E4
:100E80007E02A0917F02B09180020796A11DB11D44
:100E900023E0B695A795979587952A95D1F7209148
:100EA000BC0024FD03C010927B02089540917D0296
:100EB00050917E0260917F0270918002452B462BFB
:100EC000472B69F30097A105B10541F02AE22A9565
:100ED000F1F700C00197A109B109E1CF80917C022F
:100EE0000C9477021F920F920FB60F9211242F933A
:100EF0003F938F939F93AF93BF9380914D029091B7
:100F00004E02A0914F02B091500230914C0223E06A
:100F1000230F2D3758F50196A11DB11D20934C02CA
:100F200080934D0290934E02A0934F02B0935002D3
:100F30008091510290915202A0915302B0915402BB
:100F40000196A11DB11D8093510290935202A0936E
:100F50005302B0935402BF91AF919F918F913F91F3
:100F60002F910F900FBE0F901F90189526E8230F1A
:100F70000296A11DB11DD2CF1F920F920FB60F92F4
:100F800011242F933F934F935F936F937F938F938E
:100F90009F93AF93BF93EF93FF9385EA92E00E94F4
:100FA000A301FF91EF91BF91AF919F918F917F919D
:100FB0006F915F914F913F912F910F900FBE0F90C6
:100FC0001F9018951F920F920FB60F9211242F9316
:100FD0008F939F93EF93FF93E091B502F091B60248
:100FE0008081E091BB02F091BC0282FD1BC0908128
:100FF0008091BE028F5F8F732091BF02821741F0F4
:10100000E091BE02F0E0EB55FD4F958F8093BE025C
:10101000FF91EF919F918F912F910F900FBE0F90A5
:101020001F9018958081F4CF1F920F920FB60F92E8
:1010300011242F933F934F935F936F937F938F93DD
:101040009F93AF93BF93EF93FF938091B900887FF5
:10105000803609F44AC0F0F5883209F4A7C018F5C3
:10106000803109F49BC0B8F4882309F4F9C08830B2
:1010700009F494C0FF91EF91BF91AF919F918F912F
:101080007F916F915F914F913F912F910F900FBE84
:101090000F901F901895883109F488C0803251F75D
:1010A0008093790214C0803409F49DC040F48033E9
:1010B000B9F38833F9F68093790285ECB0C08035B6
:1010C00009F485C0883509F496C0883499F60E94E1
:1010D0003A07D0CF883909F48CC038F5883729F021
:1010E00050F4883611F0803729F683E080937B0234
:1010F00010924B0257C0883809F47BC0803919F030
:10110000803809F0B7CF80914B02803208F071C06F
:10111000E0914B0281E08E0F80934B028091BB00E7
:10112000F0E0E55DFD4F80833DC0803B39F0E0F4A9
:10113000803A09F479C0883A09F09CCF84E0809322
:101140007B021092280210922702E0912502F09172
:10115000260209958091270281110FC081E08093BA
:1011600027021092050209C0803C09F4A6CF883CF2
:1011700009F4A3CF883B09F07DCFE091280281E0FC
:101180008E0F80932802F0E0EB5FFD4F808180930B
:10119000BB00909128028091270229C080915602BD
:1011A0008093BB0085EC8093BC0064CF9091780263
:1011B00080917702981758F5E091780281E08E0FC0
:1011C00080937802F0E0E95AFD4F8081E9CFE09109
:1011D000780281E08E0F809378028091BB00F0E06E
:1011E000E95AFD4F80839091780280917702981799
:1011F000C8F285E8D8CFE091780281E08E0F809325
:1012000078028091BB00F0E0E95AFD4F8083809125
:101210007A0281115CCF81E08093550284EA809349
:10122000BC0010927B0226CF85EC8093BC0010920C
:101230007B0280914B02803230F4E0914B02F0E06F
:10124000E55DFD4F108260914B0270E0E091290254
:10125000F0912A028BE292E0099510924B020ACF9C
:101260001092790234CFE5EAF2E01382128248EE5E
:1012700053E060E070E0448355836683778384E0C5
:1012800091E09183808385EC90E09587848784EC5E
:1012900090E09787868780EC90E0918B808B81EC43
:1012A00090E0938B828B82EC90E0958B848B86EC24
:1012B00090E0978B868B118E128E138E148EA2E483
:1012C000B3E013961C921E92129714964D935D9361
:1012D0006D937C93179786E191E011969C938E9382
:1012E000EEE4F3E0138212828FEF848388E291E0D0
:1012F00091838083B287A18788E283870895CF9303
:10130000DF93CDB7DEB72C970FB6F894DEBF0FBED4
:10131000CDBF789484B5826084BD84B5816084BD7E
:1013200085B5826085BD85B5816085BD80916E0083
:10133000816080936E0010928100809181008260B4
:1013400080938100809181008160809381008091F1
:1013500080008160809380008091B10084608093E0
:10136000B1008091B00081608093B00080917A00DC
:10137000846080937A0080917A00826080937A0002
:1013800080917A00816080937A0080917A008068F1
:1013900080937A001092C100E091B502F091B602FC
:1013A00082E08083E091B102F091B2021082E0917C
:1013B000B302F091B40280E180831092BD02E0910B
:1013C000B902F091BA0286E08083E091B702F09111
:1013D000B802808180618083E091B702F091B80209
:1013E000808188608083E091B702F091B8028081AB
:1013F00080688083E091B702F091B80280818F7D90
:1014000080830E94320702E010E093E0E92EF12C85
:10141000CC24C394D12C80E00E94710421E0AE0161
:101420004F5F5F4F60E08EE493E00E94CC058981BE
:101430002091500330915103232B09F0B1C0803A21
:1014400009F0AEC00E943207A12C80E00E94710416
:1014500021E0AE014F5F5F4F69E38EE493E00E94AD
:10146000CC0569806AE070E080E090E00E94F300C3
:10147000A394662029F184E6A812E7CFF0925103E5
:10148000E09250038091500390915103892B09F40D
:10149000A9C08BE391E00E94E204809150039091F7
:1014A00051038230910509F497C008F07EC000977F
:1014B00009F484C0019709F48CC08DEA91E080C0E2
:1014C000E4E6AE16D9F290E080E00E942007F92D04
:1014D000FF639F2E8B2D807C8462B82E80E00E945B
:1014E00071044B2D692D81E40E94F6066AE070E0DC
:1014F00080E090E00E94F30062E370E080E090E022
:101500000E94F3008981887781688F7E898380E0DB
:101510000E94710421E0AE014F5F5F4F6BE38EE4E8
:1015200093E00E94130481E00E94710441E063E0B3
:1015300088E00E94F6068091500390915103892B18
:1015400021F4D0925403C092530381E00E947104AD
:1015500040E067E08AE00E94F60680915003909197
:101560005103892B21F41092560310925503882DB4
:101570008360882EE72DEC7F7E2E80E00E94710430
:10158000472D682D8EE30E94F6068CE090E00E94C5
:10159000200762E370E080E090E00E94F30072CFE9
:1015A00010935103009350036DCF83309105B9F030
:1015B000049709F082CF80E991E002C08BE491E0CA
:1015C0000E94E20460ED77E080E090E00E94F3008A
:1015D00022CF89E591E0F4CF86E691E0F1CF8AE76A
:1015E00091E0EECF8BEB91E00E94E2048E01095F67
:1015F0001F4F80E0282E80E0382EF80186E01192FF
:101600008A95E9F780E00E94710426E0A8016AE16A
:101610008EE493E00E94CC05F801DE01119686E08D
:1016200001900D928A95E1F769817A81072E000C6D
:10163000880B990B0E94920C20E030E040E85DE3BB
:101640000E94470D6B017C016B817C81072E000C91
:10165000880B990B0E94920C20E030E040E85DE39B
:101660000E94470D4B015C016D817E81072E000CAD
:10167000880B990B0E94920C20E030E040E85DE37B
:101680000E94470D2B013C018DEC91E00E949104DA
:1016900043E0C301B2010E94F00484ED91E00E9496
:1016A000910486ED91E00E94910443E0C501B401EC
:1016B0000E94F00484ED91E00E9491048CED91E091
:1016C0000E94910443E0C701B6010E94F00484ED3A
:1016D00091E00E94E20460E570E080E090E00E940A
:1016E000F3002114310409F488CF0E948F0188236C
:1016F00009F483CF0E94000080CF5058BB27AA274F
:101700000E94950B0C94080D0E94FA0C38F00E9470
:10171000010D20F039F49F3F19F426F40C94F70CD6
:101720000EF4E095E7FB0C94F10CE92F0E94190DE3
:1017300058F3BA17620773078407950720F079F406
:10174000A6F50C943B0D0EF4E0950B2EBA2FA02DB0
:101750000B01B90190010C01CA01A0011124FF275E
:10176000591B99F0593F50F4503E68F11A16F04059
:10177000A22F232F342F4427585FF3CF4695379558
:101780002795A795F0405395C9F77EF41F16BA0B1D
:10179000620B730B840BBAF09150A1F0FF0FBB1FCB
:1017A000661F771F881FC2F70EC0BA0F621F731F14
:1017B000841F48F4879577956795B795F7959E3F71
:1017C00008F0B0CF9395880F08F09927EE0F979502
:1017D000879508950E94CD0C08F481E008950E9439
:1017E000030C0C94080D0E94010D58F00E94FA0C95
:1017F00040F029F45F3F29F00C94F10C51110C9446
:101800003C0D0C94F70C0E94190D68F39923B1F369
:10181000552391F3951B550BBB27AA276217730716
:10182000840738F09F5F5F4F220F331F441FAA1FAA
:10183000A9F335D00E2E3AF0E0E832D09150504066
:10184000E695001CCAF72BD0FE2F29D0660F771F14
:10185000881FBB1F261737074807AB07B0E809F0FA
:10186000BB0B802DBF01FF2793585F4F3AF09E3F7F
:10187000510578F00C94F10C0C943C0D5F3FE4F3AF
:10188000983ED4F3869577956795B795F7959F5FC2
:10189000C9F7880F911D9695879597F90895E1E00E
:1018A000660F771F881FBB1F621773078407BA076D
:1018B00020F0621B730B840BBA0BEE1F88F7E095C8
:1018C00008950E94210D88F09F5798F0B92F99270D
:1018D000B751B0F0E1F0660F771F881F991F1AF01B
:1018E000BA95C9F714C0B13091F00E943B0DB1E038
:1018F00008950C943B0D672F782F8827B85F39F037
:10190000B93FCCF3869577956795B395D9F73EF4B3
:1019100090958095709561957F4F8F4F9F4F08955B
:10192000E89409C097FB3EF4909580957095619579
:101930007F4F8F4F9F4F9923A9F0F92F96E9BB272F
:101940009395F695879577956795B795F111F8CFAB
:10195000FAF4BB0F11F460FF1BC06F5F7F4F8F4F16
:101960009F4F16C0882311F096E911C0772321F00C
:101970009EE8872F762F05C0662371F096E8862FA4
:1019800070E060E02AF09A95660F771F881FDAF7FB
:10199000880F9695879597F90895990F0008550F28
:1019A000AA0BE0E8FEEF16161706E807F907C0F0E5
:1019B00012161306E407F50798F0621B730B840BED
:1019C000950B39F40A2661F0232B242B252B21F4C7
:1019D00008950A2609F4A140A6958FEF811D811D67
:1019E000089597F99F6780E870E060E008959FEFA1
:1019F00080EC089500240A941616170618060906A6
:101A0000089500240A941216130614060506089574
:101A1000092E0394000C11F4882352F0BB0F40F4FC
:101A2000BF2B11F460FF04C06F5F7F4F8F4F9F4F3C
:101A3000089557FD9058440F551F59F05F3F71F0BE
:101A40004795880F97FB991F61F09F3F79F0879525
:101A50000895121613061406551FF2CF4695F1DFAE
:101A600008C0161617061806991FF1CF869571053E
:101A7000610508940895E894BB2766277727CB0172
:101A800097F908950E94CD0C08F48FEF08950E94F5
:101A90005A0D0C94080D0E94FA0C38F00E94010DAA
:101AA00020F0952311F00C94F10C0C94F70C1124F8
:101AB0000C943C0D0E94190D70F3959FC1F3950F86
:101AC00050E0551F629FF001729FBB27F00DB11DC2
:101AD000639FAA27F00DB11DAA1F649F6627B00D52
:101AE000A11D661F829F2227B00DA11D621F739F3B
:101AF000B00DA11D621F839FA00D611D221F749F49
:101B00003327A00D611D231F849F600D211D822F8F
:101B1000762F6A2F11249F5750409AF0F1F08823B6
:101B20004AF0EE0FFF1FBB1F661F771F881F9150E3
:101B30005040A9F79E3F510580F00C94F10C0C9495
:101B40003C0D5F3FE4F3983ED4F386957795679517
:101B5000B795F795E7959F5FC1F7FE2B880F911D0D
:101B60009695879597F908950E94CD0C880B990B4F
:101B70000895A1E21A2EAA1BBB1BFD010DC0AA1FCE
:101B8000BB1FEE1FFF1FA217B307E407F50720F0E6
:101B9000A21BB30BE40BF50B661F771F881F991F61
:101BA0001A9469F760957095809590959B01AC01AA
:101BB000BD01CF010895EE0FFF1F0590F491E02DB8
:061BC0000994F894FFCF28
:101BC60000000000C50125015201120283016101D6
:101BD600750100000000E103B40310048A03AD039D
:101BE6009A038B0300000000CC0513040D0A006E57
:101BF600616E00696E66006F766600626E6F2062C7
:101C06006567696E206661696C64006576657279E0
:101C16007468696E67206F6B00756E6B6E6F7720E8
:101C26006572726F7200646576696365206E6F74A3
:101C360020646574656374656400646576696365CC
:101C46002072656164792074696D65206F75740012
:101C560064657669636520696E7465726E616C2071
:101C6600737461747573206572726F7200756E6B32
:101C76006E6F772073746174757300626E6F206285
:101C86006567696E20737563636573730070697445
:101C960063683A002000726F6C6C3A007961773A9B
:021CA60000003C
:00000001FF
